:020000040000FA
:0400000025EF00F0F8
:06000800578242EF10F0E8
:100018005780D8CF87F0E8CF88F0E0CF89F0F2A4F6
:1000280018EF00F01AEF00F01DEF00F0B7EC0CF03D
:10003800F29489C0E0FF88C0E8FF87C0D8FF5790D6
:060048001000D5EF12F0DC
:1003000000DF034803A5037C0305010906A10105DD
:100310000719E029E7150025017501950881029567
:1003200001750881039505750105081901290591D5
:10033000029501750391039506750815002565055D
:1003400007190029658100C034034D00690063006E
:1003500072006F00630068006900700020005400A4
:100360006500630068006E006F006C006F0067003E
:100370007900200049006E0063002E000902290068
:10038000010100C03209040000020301010009213B
:1003900011010001223F0007058103080001070544
:1003A000010308000128034E0045004D004500539D
:1003B000004900530020005B00530069006D007588
:1003C000006C00610074006F0072005D001201009B
:1003D0000200000008D804550001000102000104D9
:1003E0000309040002012205D8A4F9EF01F0FBEF94
:1003F00001F015EF02F020511F0B0009D8A403EF04
:1004000002F005EF02F015EF02F00C8E030E211939
:10041000D8A40DEF02F00FEF02F013EF02F0010E7F
:10042000266E15EF02F0000E266E2251D8A41BEFA7
:1004300002F01DEF02F097EF03F020511F0B020AAC
:10044000D8A425EF02F027EF02F097EF03F0245134
:100450000F0B0009D8B42FEF02F031EF02F097EF45
:1004600003F024510F0B426E020E42603AEF02F08D
:100470003CEF02F097EF03F0200E2918D8A443EFC9
:1004800002F045EF02F097EF03F00C8E24BF4BEF24
:1004900002F04DEF02F06AEF02F024510F0B426EB2
:1004A0004250020D130EF324D96E000EF420DA6EC2
:1004B000DECF47F0DDCF48F024510F0B426E436A88
:1004C000190E4224D96E000E4320DA6EDF50466EBC
:1004D00085EF02F024510F0B426E4250020D0F0EB9
:1004E000F324D96E000EF420DA6EDECF47F0DDCFB4
:1004F00048F024510F0B426E436A1B0E4224D96E02
:10050000000E4320DA6EDF50466E46B08AEF02F0EE
:100510008CEF02F094EF02F0FB0E4714476EFF0ED3
:100520004814486E99EF02F0040E4710476E485089
:10053000486E24BF9EEF02F0A0EF02F0B1EF02F090
:1005400024510F0B426E4250020D130EF324D96E4C
:10055000000EF420DA6E47C0DEFF48C0DDFFC0EFBA
:1005600002F024510F0B426E4250020D0F0EF32485
:10057000D96E000EF420DA6E47C0DEFF48C0DDFF02
:10058000030E2119D8A4C7EF02F0C9EF02F001EF62
:1005900003F047C0D9FF48C0DAFFDFAED2EF02F068
:1005A000D4EF02F0F3EF02F024BFD9EF02F0DBEF5B
:1005B00002F0E8EF02F024510F0B426E436A190E6D
:1005C0004224D96E000E4320DA6EDF82F3EF02F090
:1005D00024510F0B426E436A1B0E4224D96E000E4B
:1005E0004320DA6EDF8247C0D9FF48C0DAFF000E31
:1005F000DB8447C0D9FF48C0DAFF000EDB8E97EFDF
:1006000003F0040E4718476E4850486E47C0D9FFA4
:1006100048C0DAFFDFAE0FEF03F011EF03F02DEF6C
:1006200003F047C0D9FF48C0DAFF7F0EDF1647C08E
:10063000D9FF48C0DAFF000EDB8C000E3B6E050EC2
:100640003A6E47C03CF048C03DF0000E3F6E020ECF
:100650003E6EF4EC0EF033EF03F047C0D9FF48C014
:10066000DAFF000EDB8C040E4718476E4850486EC8
:1006700046B23DEF03F03FEF03F04AEF03F047C00F
:10068000D9FF48C0DAFFDFAE48EF03F04AEF03F0CE
:1006900080EF03F0020124BF50EF03F052EF03F0AC
:1006A0005FEF03F024510F0B426E436A190E422490
:1006B000D96E000E4320DA6EDF926AEF03F0245108
:1006C0000F0B426E436A1B0E4224D96E000E43206C
:1006D000DA6EDF9247C0D9FF48C0DAFF3B0EDF1663
:1006E000000E3B6E050E3A6E47C03CF048C03DF030
:1006F000000E3F6E020E3E6EF4EC0EF086EF03F03D
:1007000047C0D9FF48C0DAFF3B0EDF160201245173
:100710000F0B426E436A530E4224446E0F0E432069
:10072000456E44C0D9FF45C0DAFFFE0EDF16120049
:10073000200E29609EEF03F0A0EF03F0A2EF03F07C
:10074000BDEF04F064A2A7EF03F0A9EF03F0AFEF51
:1007500003F0BDEF04F017C074F018C075F0175027
:100760000001741907E118507519D8A4BAEF03F005
:10077000BCEF03F0ABEF03F07251745D9A6F7351ED
:1007800075599B6F9BBFC9EF03F0C7EF03F0D5EF1F
:1007900003F07251745D976F73517559986FFF0E26
:1007A00097259A6F7F0E98219B6F9BBFE1EF03F017
:1007B000890E9A5D130E9B59D8A0E1EF03F0E3EF89
:1007C00003F0E9EF03F0780E7425726FEC0E7521DB
:1007D000736F68516911D8B4F0EF03F0F2EF03F0D2
:1007E000FDEF03F068C0D9FF69C0DAFFDFBEFBEFA1
:1007F00003F0FDEF03F099EF04F0400E8A6F020E54
:100800008B6F000E8D6F000E8C6F000E8F6F080EB9
:100810008E6F6BEC12F01DEF04F0420E8A6F020E29
:100820008B6FC0EC10F034EF04F0420E8A6F020EB2
:100830008B6FF2EC10F034EF04F095C097F096C097
:1008400098F000019851000AD8B429EF04F034EF71
:1008500004F09751000AD8B40DEF04F0010AD8B49F
:1008600015EF04F034EF04F0000E0001996F000E54
:100870009C6F400E9C25D96EDA6A020EDA22600E59
:100880009C25E16EE26A000EE222DE50E618D8B442
:100890004CEF04F04EEF04F052EF04F0010E996FAC
:1008A0005BEF04F09C2B070E9C6559EF04F05BEFA7
:1008B00004F039EF04F076517711D8B462EF04F008
:1008C00064EF04F075EF04F076519A5D9B51800A55
:1008D000976F7751800A9759D8A071EF04F073EFA2
:1008E00004F075EF04F0010E996F9905D8A47BEF21
:1008F00004F07DEF04F099EF04F022EE40F010EEEA
:1009000060F0070EDBCFE3FFE806FCE2010E8A6F22
:10091000400E8B6F020E8C6F080E8D6F010ED0ECA7
:1009200009F08AC068F08BC069F074C072F075C0BD
:1009300073F000016A516B11D8B4A1EF04F0A3EF7A
:1009400004F0AEEF04F06AC0D9FF6BC0DAFFDFBE7F
:10095000ACEF04F0AEEF04F0BDEF04F0000E8A6FD0
:10096000480E8B6F020E8C6F010E8D6F010ED0EC56
:1009700009F08AC06AF08BC06BF012002904D8A479
:10098000C4EF04F0C6EF04F0D3EF04F064BACBEF89
:1009900004F0CDEF04F0D3EF04F0000E626E60803F
:1009A0006088020E296E62A4D8EF04F0DAEF04F03A
:1009B000E4EF04F060A4DFEF04F0E1EF04F0E4EF13
:1009C00004F062944BEC12F064A2E9EF04F0EBEF58
:1009D00004F0EEEF04F0A194D0EF05F062A0F3EF85
:1009E00004F0F5EF04F002EF05F060A0FAEF04F078
:1009F000FCEF04F002EF05F035EC07F0A084040EE4
:100A0000296E629062A807EF05F009EF05F012EF7A
:100A100005F060A80EEF05F010EF05F012EF05F0FD
:100A2000BEEC12F062AC17EF05F019EF05F044EFE1
:100A300005F060AC1EEF05F020EF05F02EEF05F09D
:100A4000000E3B6E730E3A6E000E3C6E000E3D6E55
:100A5000000E3F6E010E3E6EF4EC0EF0629CA4ECB4
:100A600012F02250D8B437EF05F039EF05F03AEF25
:100A700005F022062250D8A440EF05F042EF05F021
:100A800044EF05F035EC0DF062AA49EF05F04BEFAD
:100A900005F054EF05F060AA50EF05F052EF05F0B5
:100AA00054EF05F056EC11F062A259EF05F05BEF40
:100AB00005F072EF05F060A260EF05F062EF05F05F
:100AC00072EF05F07F0E3B6E3A68000E3C6E000E32
:100AD0003D6E000E3F6E010E3E6EF4EC0EF0000E09
:100AE0000F015F6F040E296078EF05F07AEF05F0D3
:100AF0007DEF05F0A194D0EF05F060A682EF05F040
:100B000084EF05F0CFEF05F0000E4A6E62A68BEF82
:100B100005F08DEF05F0CFEF05F063CF2BF02B3014
:100B2000E832E8320F0B246E62962BB49AEF05F090
:100B30009CEF05F0A5EF05F0190E2424D96EDA6AB2
:100B4000000EDA22DF70ACEF05F01B0E2424D96E04
:100B5000DA6A000EDA22DF702450D8A4B2EF05F072
:100B6000B4EF05F0B8EF05F098EC0EF0C6EF05F025
:100B7000000E3B6E720E3A6E2B0E3C6E000E3D6EFA
:100B8000000E3F6E000E3E6EF4EC0EF04A2A030E8D
:100B90004A64CDEF05F0CFEF05F086EF05F0A194A4
:100BA000120020EE01F01F50D9262050DA22DF502B
:100BB0002F6E2F50055C000E0658D8B0E2EF05F0FE
:100BC000E4EF05F0E6EF05F005C02FF02F50055ECD
:100BD000000E065A000E2E6EFDEF05F0280E2E2494
:100BE000D96EDA6A020EDA2201C0E1FF02C0E2FF2A
:100BF000DFCFE7FF014A022A2E2A2F502E5CD8A011
:100C000004EF06F006EF06F0EEEF05F005500610D3
:100C1000D8B40DEF06F00FEF06F048EF06F020EE27
:100C200001F01D50D9261E50DA22080EDF6E20EE8C
:100C300002F01D50D9261E50DA22280EDE6E020E5A
:100C4000DD6E1FC0D9FF20C0DAFFDFBC2AEF06F03F
:100C50002CEF06F03AEF06F01DC0D9FF1EC0DAFFF8
:100C6000480EDF6E1DC0D9FF1EC0DAFF000EDB8EFE
:100C700089EF06F01DC0D9FF1EC0DAFF080EDF6E37
:100C80001DC0D9FF1EC0DAFF000EDB8E89EF06F013
:100C900020EE01F01D50D9261E50DA22080EDF6E1C
:100CA00020EE02F01D50D9261E50DA22200EDE6EF4
:100CB000020EDD6E1DC0D9FF1EC0DAFF040EDF6E0E
:100CC0001DC0D9FF1EC0DAFF000EDB8E07500810D2
:100CD000D8B46DEF06F06FEF06F07EEF06F020EE71
:100CE00007F002D87EEF06F00500FA6EDE50FD6ECA
:100CF000DE50FE6EF850FF6EFA501200049E215036
:100D0000D8A485EF06F087EF06F089EF06F035EC02
:100D10000DF01200A094000E0F015F6F000E626EC6
:100D2000000E536F540E00018A6F0F0E8B6F000E72
:100D30008D6F000E8C6F000E8F6F010E8E6F6BEC3F
:100D400012F0160E616E9F0E0F015B6F7B0E606ED0
:100D5000000E0001926F9251040D000EF324D96E23
:100D6000020EF420DA6EDE6ADE6ADE6ADD6A922B3B
:100D7000070E9265BEEF06F0C0EF06F0ABEF06F08F
:100D8000648C000E0F015C6F6498649C6296000E88
:100D90000C6E000E046E000E066E000E056E62B63E
:100DA000D4EF06F0D6EF06F0C6EF06F0010E000114
:100DB000806F010E7F6F000E7E6F000E7D6F000E44
:100DC000256E000E926F9251020D0F0EF324D96E14
:100DD000000EF420DA6E000EDE6E000EDD6E925113
:100DE000020D130EF324D96E000EF420DA6E000EFD
:100DF000DE6E000EDD6E1B0E9225D96EDA6A000ED5
:100E0000DA22000EDF6E190E9225D96EDA6A000E14
:100E1000DA22000EDF6E922B010E926512EF07F0C0
:100E200014EF07F0E3EF06F0080E0F6E020E106EDF
:100E3000160E0F01536F020E0201036F200E026F98
:100E4000080E016F040E006F008F000E2D6E000E55
:100E500000016E6F000E6F6F000E706F000E716FED
:100E6000000E7C6F000E296E1200A094000E0F0180
:100E70005F6F000E626E000E536F540E2E6E0F0EDB
:100E80002F6E000E316E000E306E000E336E010EAE
:100E9000326E88EC12F0160E616E9F0E0F015B6FC2
:100EA0007B0E606E000E366E3650040D000EF3247D
:100EB000D96E020EF420DA6EDE6ADE6ADE6ADD6A60
:100EC000362A070E366467EF07F069EF07F054EF34
:100ED00007F0648C000E0F015C6F6498649C62964E
:100EE000000E0C6E000E046E000E066E000E056EF7
:100EF00062B67DEF07F07FEF07F06FEF07F0010EAE
:100F00000001806F010E7F6F000E7E6F000E7D6FFF
:100F1000000E256E000E366E3650020D0F0EF324B5
:100F2000D96E000EF420DA6E000EDE6E000EDD6E5D
:100F30003650020D130EF324D96E000EF420DA6E33
:100F4000000EDE6E000EDD6E1B0E3624D96EDA6AE0
:100F5000000EDA22000EDF6E190E3624D96EDA6A20
:100F6000000EDA22000EDF6E362A010E3664BBEF69
:100F700007F0BDEF07F08CEF07F0080E0F6E020EC2
:100F8000106E160E0F01536F020E0201036F200E3A
:100F9000026F080E016F040E006F008F000E2D6EA1
:100FA000000E00016E6F000E6F6F000E706F000E6E
:100FB000716F000E7C6F000E296E1200020120512D
:100FC0001F0BE806D8B4E7EF07F0E9EF07F0EBEF07
:100FD00007F084EF08F02451D8B4F1EF07F0F3EFF5
:100FE00007F0F5EF07F084EF08F0060E2119D8A4FA
:100FF000FCEF07F0FEEF07F02FEF08F020EF08F00E
:101000002D04D8A406EF08F008EF08F02FEF08F041
:101010008E0E096E030E0A6E000E0E6E090E0D6E18
:10102000C00E0C6E2FEF08F0090E096E030E0A6E4B
:10103000000E0E6E3F0E0D6EC00E0C6E2FEF08F000
:101040002351210AD8B400EF08F0030AD8B414EFF2
:1010500008F0010AD8B42FEF08F02FEF08F020397C
:10106000E832030BE806D8B438EF08F03AEF08F09E
:1010700069EF08F084EF08F0F9EC12F084EF08F063
:10108000850E096E000E0A6E000E0E6E010E0D6EBC
:10109000C10E0C6E84EF08F0800E0C6E23C285F03A
:1010A00085C02EF0225107EC13F084EF08F0840E77
:1010B000096E000E0A6E000E0E6E010E0D6E810E90
:1010C0000C6E84EF08F0800E0C6E22C284F084EF68
:1010D00008F02151010AD8B484EF08F0030AD8B40B
:1010E00040EF08F0010AD8B457EF08F00A0AD8B464
:1010F0003CEF08F0030AD8B44CEF08F0010AD8B46A
:1011000063EF08F084EF08F01200800E020120194E
:10111000D8A48DEF08F08FEF08F02AEF09F0C00E89
:101120000C6E1BEF09F0CD0E096E030E0A6E000E59
:101130000E6E120E0D6E2AEF09F02251D8A4A3EF05
:1011400008F0A5EF08F0E3EF08F02251020D070EBA
:10115000F324F66E030EF420F76E0900F5CF09F0C4
:101160000A00F5CF0AF0020E09242E6E000E0A20A6
:101170002F6E2EC0F6FF2FC0F7FFF86A020EF7643D
:1011800003D00800F55005D0F6CFE1FFF7CFE2FF1E
:10119000E7500D6E030E09242E6E000E0A202F6EEE
:1011A0002EC0F6FF2FC0F7FFF86A020EF76403D0D7
:1011B0000800F55005D0F6CFE1FFF7CFE2FFE7508A
:1011C0000E6E2AEF09F0000E0C6E2AEF09F0030EE6
:1011D0002261EDEF08F0EFEF08F013EF09F0225174
:1011E000020D010EF324F66E030EF420F76E0900D3
:1011F000F5CF09F00A00F5CF0AF009C0F6FF0AC0E2
:10120000F7FFF86A020EF76403D00800F55005D026
:10121000F6CFE1FFF7CFE2FFE7502E6E2E500D6EB6
:101220000E6A2AEF09F0000E0C6E2AEF09F0000E8C
:101230000C6E2AEF09F02351010AD8B493EF08F09D
:10124000030AD8B49DEF08F0010AD8B4E7EF08F01C
:1012500017EF09F0120064980CBE31EF09F033EF7C
:1012600009F07AEF09F004AE38EF09F03AEF09F02F
:101270004EEF09F0020E276E00017D51D8A443EF16
:1012800009F045EF09F047EF09F04DEC0FF0000EC3
:1012900000017F6F000E806FCFEF09F020EE01F0AC
:1012A0001D50D9261E50DA22080EDF6E20EE02F005
:1012B0001D50D9261E50DA22200EDE6E020EDD6E83
:1012C0001DC0D9FF1EC0DAFF0C0EDF6E1DC0D9FF96
:1012D0001EC0DAFF000EDB8E0FC0D9FF10C0DAFF90
:1012E000040EDF6E0FC0D9FF10C0DAFF000EDB8ED8
:1012F000CFEF09F0020120AF80EF09F082EF09F093
:10130000A0EF09F0010E276E00017E51D8A48BEFEB
:1013100009F08DEF09F08FEF09F04DEC0FF0000EA2
:1013200000017F6F000E806F2150D8A49AEF09F062
:101330009CEF09F0CFEF09F035EC0DF0CFEF09F09D
:10134000020E276E20EE01F01D50D9261E50DA2223
:10135000080EDF6E20EE02F01D50D9261E50DA2254
:10136000200EDE6E020EDD6E1DC0D9FF1EC0DAFF3C
:10137000040EDF6E1DC0D9FF1EC0DAFF000EDB8E2B
:10138000000E00017F6F000E806F2150D8A4CBEFBC
:1013900009F0CDEF09F0CFEF09F09CEF09F0120052
:1013A0000001926F00018A51D8B4D9EF09F0DBEF48
:1013B00009F0E9EF09F09251020D0F0EF324D96EF6
:1013C000000EF420DA6EDECF93F0DDCF94F0F5EF6F
:1013D00009F09251020D130EF324D96E000EF42081
:1013E000DA6EDECF93F0DDCF94F093519411D8A450
:1013F000FCEF09F0FEEF09F004EF0AF0000E8A6F2F
:10140000000E8B6F70EF0AF020EE02F09351D92698
:101410009451DA228BC0DEFF8CC0DDFF20EE01F09C
:101420009351D9269451DA228DC0DFFF93C0D9FFA2
:1014300094C0DAFF400EDF1693C0D9FF94C0DAFFE4
:10144000000EDB8693C0D9FF94C0DAFF000EDB8E5E
:101450008A51D8B42EEF0AF030EF0AF04FEF0AF0BD
:101460009251020D0F0EF324D96E000EF420DA6EA5
:10147000DECF8EF0DDCF8FF0040E8E19906F8F517E
:10148000916F9251020D0F0EF324D96E000EF420CD
:10149000DA6E90C0DEFF91C0DDFF6CEF0AF0925172
:1014A000020D130EF324D96E000EF420DA6EDECF97
:1014B0008EF0DDCF8FF0040E8E19906F8F51916FEB
:1014C0009251020D130EF324D96E000EF420DA6E41
:1014D00090C0DEFF91C0DDFF93C08AF094C08BF016
:1014E0001200366E2E50D8B478EF0AF07AEF0AF078
:1014F00088EF0AF03650020D0F0EF324D96E000E5D
:10150000F420DA6EDECF37F0DDCF38F094EF0AF05A
:101510003650020D130EF324D96E000EF420DA6E4D
:10152000DECF37F0DDCF38F037503810D8A49BEF3E
:101530000AF09DEF0AF0A3EF0AF0000E2E6E000EE7
:101540002F6E0FEF0BF020EE02F03750D9263850F7
:10155000DA222FC0DEFF30C0DDFF20EE01F0375071
:10156000D9263850DA2231C0DFFF37C0D9FF38C062
:10157000DAFF400EDF1637C0D9FF38C0DAFF000EA1
:10158000DB8637C0D9FF38C0DAFF000EDB8E2E5065
:10159000D8B4CDEF0AF0CFEF0AF0EEEF0AF03650F4
:1015A000020D0F0EF324D96E000EF420DA6EDECF9A
:1015B00032F0DDCF33F0040E3218346E3350356E16
:1015C0003650020D0F0EF324D96E000EF420DA6EA1
:1015D00034C0DEFF35C0DDFF0BEF0BF03650020DDF
:1015E000130EF324D96E000EF420DA6EDECF32F043
:1015F000DDCF33F0040E3218346E3350356E365072
:10160000020D130EF324D96E000EF420DA6E34C0EE
:10161000DEFF35C0DDFF37C02EF038C02FF01200DE
:101620000FC0D9FF10C0DAFF000EDFBC010E2F6E15
:10163000040E0F180F6E1050106E080E2918D8A443
:1016400024EF0BF026EF0BF039EF0BF002012251E3
:101650007F0B0F015C6F5C51D8B431EF0BF033EFAF
:101660000BF037EF0BF0100E296E39EF0BF0040E74
:10167000296E2704D8A43FEF0BF041EF0BF088EF61
:101680000BF020EE02F00F50D9261050DA22280E6F
:10169000DE6E020EDD6EABEC0BF0020E2818D8A445
:1016A00054EF0BF056EF0BF064EF0BF00FC0D9FFC7
:1016B00010C0DAFF040EDF6E0FC0D9FF10C0DAFFD2
:1016C000000EDB8EAAEF0BF02F50D8A46AEF0BF0C0
:1016D0006CEF0BF07AEF0BF00FC0D9FF10C0DAFF00
:1016E000480EDF6E0FC0D9FF10C0DAFF000EDB8E90
:1016F000AAEF0BF00FC0D9FF10C0DAFF080EDF6EA3
:101700000FC0D9FF10C0DAFF000EDB8EAAEF0BF07E
:1017100004AE8DEF0BF08FEF0BF0A8EF0BF007503E
:101720000810D8B496EF0BF098EF0BF0A7EF0BF082
:1017300020EE07F002D8A7EF0BF00500FA6EDE509E
:10174000FD6EDE50FE6EF850FF6EFA501200049EE1
:10175000000E276E1200080E2E6E0E5007E1080EC6
:101760000D5CD8B0B6EF0BF0B8EF0BF0D0EF0BF08C
:101770000DC02EF02850D8A4C0EF0BF0C2EF0BF034
:10178000C6EF0BF0010E286ED0EF0BF02804D8A4A2
:10179000CCEF0BF0CEEF0BF0D0EF0BF0020E286E7B
:1017A0002E500D5E000E0E5A20EE01F00F50D9267D
:1017B0001050DA222EC0DFFF280E0001786F020ED3
:1017C000796F0CB0E6EF0BF0E8EF0BF02AEF0CF0BE
:1017D00005EF0CF009C0F6FF0AC0F7FFF86A78C001
:1017E000D9FF79C0DAFF020EF76403D00800F55084
:1017F00005D0F6CFE1FFF7CFE2FFE750DF6E094AF1
:101800000A2A0001784B792B2E062E50D8A40BEF14
:101810000CF00DEF0CF0EAEF0BF032EF0CF009C01A
:10182000F6FF0AC0F7FFF86A78C0D9FF79C0DAFF7F
:10183000020EF76403D00800F55005D0F6CFE1FFA3
:10184000F7CFE2FFE750DF6E094A0A2A0001784B22
:10185000792B2E062E50D8A430EF0CF032EF0CF07E
:101860000FEF0CF0120002012039E832030B0009DF
:10187000D8B43DEF0CF03FEF0CF087EF0CF0B6EF73
:101880000CF00C8E080E296EB6EF0CF085EC08F00B
:10189000B6EF0CF025EC0EF0B6EF0CF02D0E096E45
:1018A000000E0A6E0C80010E0D6E0C8EB6EF0CF061
:1018B000AEEC0DF0B6EF0CF0F2EC01F0B6EF0CF080
:1018C0002C0E2425096E0A6A000E0A220C80010ED5
:1018D0000D6E0C8EB6EF0CF00C8E2C0E2425D96EEE
:1018E000DA6A000EDA2222C2DFFFB6EF0CF0000E39
:1018F0003B6E020E3A6E000E3C6E000E3D6E000E08
:101900003F6E000E3E6EF4EC0EF0B6EF0CF021517F
:10191000000AD8B458EF0CF0010AD8B45CEF0CF010
:10192000020AD8B45CEF0CF0060AD8B441EF0CF010
:10193000030AD8B446EF0CF0010AD8B477EF0CF0E4
:101940000F0AD8B44EEF0CF0010AD8B44AEF0CF0ED
:10195000030AD8B460EF0CF0010AD8B46CEF0CF0B5
:10196000070AD8B4B6EF0CF0B6EF0CF01200000185
:101970007A4B7B2B2A50D8B4C0EF0CF0C2EF0CF09E
:10198000DBEF0CF08351D8A4C8EF0CF0CAEF0CF0D9
:10199000DBEF0CF082A8CFEF0CF0D3EF0CF0866BEE
:1019A000862BD5EF0CF00001866B863B82508619A2
:1019B000EF0B8619826E2A50D8A4E1EF0CF0E3EF0A
:1019C0000CF0F9EF0CF07BBFEFEF0CF07B5109E16D
:1019D0000B0E7A5DD8A0EFEF0CF0F1EF0CF0F9EF01
:1019E0000CF0000E7B6F000E7A6F010E2A6E33EF43
:1019F0000DF02A50D8B4FFEF0CF001EF0DF017EF07
:101A00000DF07BBF0DEF0DF07B5109E10B0E7A5D00
:101A1000D8A00DEF0DF00FEF0DF017EF0DF0000E49
:101A20007B6F000E7A6F010E826F33EF0DF08351E2
:101A3000D8B41DEF0DF01FEF0DF031EF0DF07BBFAF
:101A40002BEF0DF0590E7A5D020E7B59D8A02BEFCB
:101A50000DF02DEF0DF031EF0DF08298828A33EF0B
:101A60000DF028EC13F0F294120000018051D8A47C
:101A70003CEF0DF03EEF0DF0ADEF0DF0010E806F7D
:101A80007F51D8A446EF0DF048EF0DF0ADEF0DF00B
:101A9000010E7F6F020E2718D8A451EF0DF053EFFF
:101AA0000DF069EF0DF020EE01F00F50D926105027
:101AB000DA22000EDF6E0FC0D9FF10C0DAFF480E29
:101AC000DF6E0FC0D9FF10C0DAFF000EDB8EADEF66
:101AD0000DF02704D8A46FEF0DF071EF0DF0ADEF0E
:101AE0000DF0000E236E20EE01F01F50D92620507D
:101AF000DA22080EDF6E20EE02F01F50D9262050A9
:101B0000DA22200EDE6E020EDD6E1FC0D9FF20C06D
:101B1000DAFF040EDF6E1FC0D9FF20C0DAFF000E0F
:101B2000DB8E010E236E20EE01F01D50D9261E50D3
:101B3000DA22080EDF6E20EE02F01D50D9261E506C
:101B4000DA22200EDE6E020EDD6E1DC0D9FF1EC031
:101B5000DAFF800EDF6EADEF0DF01200000E020115
:101B6000286F000E296F06EF0EF00C8E2604D8A405
:101B7000BCEF0DF0BEEF0DF016EF0EF0288316EF60
:101B80000EF00C8E16EF0EF00C8E24BFCAEF0DF087
:101B9000CCEF0DF0DDEF0DF024510F0B2E6E2E501B
:101BA000020D130EF324D96E000EF420DA6EDECF90
:101BB0002FF0DDCF30F0ECEF0DF024510F0B2E6E37
:101BC0002E50020D0F0EF324D96E000EF420DA6EA3
:101BD000DECF2FF0DDCF30F02FC0D9FF30C0DAFFDD
:101BE000DFAEF5EF0DF0F7EF0DF016EF0EF02FC0B2
:101BF000D9FF30C0DAFFDFA400EF0EF002EF0EF0E5
:101C000016EF0EF0010E286F16EF0EF020511F0B8D
:101C1000000AD8B4B5EF0DF0010AD8B4C1EF0DF049
:101C2000030AD8B4C4EF0DF016EF0EF00CAE1BEFA4
:101C30000EF01DEF0EF024EF0EF0280E096E020ECE
:101C40000A6E0C80020E0D6E12000C8E540E2E6E5B
:101C50000F0E2F6E000E316E000E306E000E336EC2
:101C6000010E326E88EC12F0000E2E6E020E2F6EF8
:101C7000000E316E000E306E000E336E200E326E8E
:101C800088EC12F0648C000E426E1B0E4224D96E5A
:101C9000DA6A000EDA22000EDF6E190E4224D96EC7
:101CA000DA6A000EDA22000EDF6E422A010E42646A
:101CB0005CEF0EF05EEF0EF045EF0EF02C0E2E6E88
:101CC000000E2F6E000E316E000E306E000E336E61
:101CD000010E326E88EC12F0649C080E0F6E020E3C
:101CE000106E000E1F6E020E206E1FC01DF020C071
:101CF0001EF022C22DF02D50D8A481EF0EF083EFFC
:101D00000EF087EF0EF0100E296E97EF0EF0000E1A
:101D10003B6E010E3A6E2D0E3C6E000E3D6E000EB7
:101D20003F6E010E3E6EF4EC0EF0200E296E120096
:101D30002D0E226E2BC049F0FD0E4916D8A4A3EF3C
:101D40000EF0A5EF0EF0E7EF0EF02BC049F0D890A3
:101D500049323F0E49164950040D000EF3241F6E00
:101D6000020EF420206E1FC01DF020C01EF0040ED5
:101D70001D181D6E1E501E6E1FC0D9FF20C0DAFF39
:101D8000DF30E8320F0B0D0AD8A4C9EF0EF0CBEF0D
:101D90000EF0E3EF0EF0200E2E6E020E2F6E20EEF0
:101DA00002F01F50D9262050DA22DECF30F0DDCFEE
:101DB00031F0000E336E080E326EB4EC11F0FAEC16
:101DC0000FF0F3EF0EF086EC10F0F3EF0EF02B5067
:101DD000FD0B040AD8A4EFEF0EF0F1EF0EF0F3EFD5
:101DE0000EF010EC0BF0120013EF0FF0172809E1C2
:101DF0007F0E1818D8B4FFEF0EF001EF0FF005EFCB
:101E00000FF0174A182A4CEF0FF0000E186E000E54
:101E1000176E4CEF0FF024EC11F04CEF0FF0DEECEE
:101E200007F04CEF0FF03AC040F03BC041F041509A
:101E3000000AD8B422EF0FF07F0AD8B445EF0FF0B4
:101E40004CEF0FF04050010AD8B40BEF0FF0030A2B
:101E5000D8B44CEF0FF0010AD8B40FEF0FF0060A18
:101E6000D8B44CEF0FF0770AD8B44CEF0FF0010A5A
:101E7000D8B4F6EF0EF0070AD8B44CEF0FF0010A11
:101E8000D8B44CEF0FF04CEF0FF04050FF0AD8B42D
:101E90004CEF0FF04CEF0FF01200000E00017E6FC0
:101EA000000E7D6F020E2718D8A459EF0FF05BEFDC
:101EB0000FF07BEF0FF020EE01F01D50D9261E50E1
:101EC000DA22080EDF6E20EE02F01D50D9261E50D9
:101ED000DA22280EDE6E020EDD6E1DC0D9FF1EC096
:101EE000DAFF480EDF6E1DC0D9FF1EC0DAFF000EFC
:101EF000DB8EA3EF0FF00D500201265D0E50275927
:101F0000D8B085EF0FF087EF0FF08BEF0FF026C200
:101F10000DF027C20EF0ABEC0BF020EE02F00F50EC
:101F2000D9261050DA22280EDE6E020EDD6E0FC0AA
:101F3000D9FF10C0DAFF480EDF6E0FC0D9FF10C006
:101F4000DAFF000EDB8E1200336E000E346E020ECE
:101F5000356E2E502F6E306AD8902F363036335073
:101F6000316E326AD89031363236D89031363236C8
:101F70002F50312630503222D89031363236D89018
:101F800031363236315034263250352234C0D9FF02
:101F900035C0DAFFDF9E2E50D8A4D1EF0FF0D3EF7B
:101FA0000FF0E1EF0FF03350020D130EF324D96E52
:101FB000000EF420DA6E34C0DEFF35C0DDFFEDEF39
:101FC0000FF03350020D0F0EF324D96E000EF420E3
:101FD000DA6E34C0DEFF35C0DDFF34C0D9FF35C056
:101FE000DAFFDF9C20EE04F03450D9263550DA2297
:101FF000DF8C1200000E286E000E216E000E000114
:102000007E6F000E7D6F000E236E000E276E0FC0D8
:10201000D9FF10C0DAFF7F0EDF16040E0F180F6E07
:102020001050106E0FC0D9FF10C0DAFF7F0EDF1600
:10203000040E0F180F6E1050106E1DC0D9FF1EC079
:10204000DAFF7F0EDF16000E0C6E000E0E6E000E15
:102050000D6E000E046E000E066E000E056E33EC63
:102060000CF0000E3B6E030E3A6E000E3C6E000E3E
:102070003D6E000E3F6E000E3E6EF4EC0EF02BEC4B
:1020800009F01200FACF4BF0FBCF4CF0E1CF4DF04E
:10209000E2CF4EF0D9CF4FF0DACF50F0F3CF51F07E
:1020A000F4CF52F0F6CF53F0F7CF54F0F8CF55F00D
:1020B000F5CF56F0F2A25FEF10F061EF10F06AEF8B
:1020C00010F020EC13F0F2928298000E0001836F62
:1020D000000E2A6EBEEC04F056C0F5FF55C0F8FFA6
:1020E00054C0F7FF53C0F6FF52C0F4FF51C0F3FFD6
:1020F00050C0DAFF4FC0D9FF4EC0E2FF4DC0E1FF34
:102100004CC0FBFF4BC0FAFF57921100020E27187C
:10211000D8A48DEF10F08FEF10F093EF10F0D1EC0A
:1021200005F0BFEF10F0000E276E2350D8A49BEFF0
:1021300010F09DEF10F0BDEF10F020EE01F01D50FB
:10214000D9261E50DA22080EDF6E20EE02F01D5056
:10215000D9261E50DA22200EDE6E020EDD6E1DC064
:10216000D9FF1EC0DAFF0C0EDF6E1DC0D9FF1EC0E6
:10217000DAFF000EDB8EBFEF10F0000E236E1200B0
:102180000201409F8AC0D9FF8BC0DAFF000EDF6ECC
:10219000000120EE01F08A51D9268B51DA22000E7F
:1021A000DF6E20EE02F08A51D9268B51DA22000E22
:1021B000DF6E20EE03F08A51D9268B51DA22000E11
:1021C000DF6E20EE04F08A51D9268B51DA22000E00
:1021D000DF6E20EE05F08A51D9268B51DA22000EEF
:1021E000DF6E12000201408F8AC0D9FF8BC0DAFF78
:1021F0000F0EDF6E000120EE01F08A51D9268B51BF
:10220000DA22000EDF6E20EE02F08A51D9268B51C1
:10221000DA22000EDF6E20EE03F08A51D9268B51B0
:10222000DA22000EDF6E20EE04F08A51D9268B519F
:10223000DA22000EDF6E20EE05F08A51D9268B518E
:10224000DA22000EDF6E1200000E0001686F000E31
:10225000696F000E6D6F010E776FF40E766F35EFBC
:1022600011F017C072F018C073F01750721907E11F
:1022700018507319D8A43FEF11F041EF11F031EF6E
:1022800011F01E0E366E010EDCEC11F0000E2E6EFB
:10229000480E2F6E020E306E010E316E010E71EC83
:1022A0000AF02EC06AF02FC06BF012000F0153A18C
:1022B0005CEF11F05EEF11F085EF11F01FC0D9FF58
:1022C00020C0DAFF800EDE18D8A469EF11F06BEFA2
:1022D00011F084EF11F00FC0D9FF10C0DAFF840EA7
:1022E000DE18D8A476EF11F078EF11F084EF11F03A
:1022F0001FC0D9FF20C0DAFF0C0EDF6E1FC0D9FF50
:1023000020C0DAFF000EDB8E5391629A120015ECAA
:1023100013F0E8EC12F08AEC06F027EC12F0829849
:10232000000E00017B6F000E7A6F000E836F000EAF
:10233000826F000E2A6E000E816F00018205D8A404
:10234000A4EF11F0A6EF11F09DEF11F08351D8A486
:10235000ACEF11F0AEEF11F09DEF11F002EC12F0C6
:102360009DEF11F025EF00F030C036F031C037F0AE
:102370002EC034F02FC035F0CEEF11F036C0D9FFAB
:1023800037C0DAFFDF50386E364A372A34C0D9FFFB
:1023900035C0DAFF38C0DFFF344A352A3206D8A00C
:1023A0003306322806E13328D8A4D9EF11F0DBEF49
:1023B00011F0BEEF11F01200396E36A4E2EF11F009
:1023C000E4EF11F0E9EF11F0000E2E6E3950A4EC9D
:1023D0000FF036A2EEEF11F0F0EF11F0F5EF11F083
:1023E000010E2E6E3950A4EC0FF0530E3924376EC7
:1023F000386A0F0E382237C0D9FF38C0DAFF36C02E
:10240000DFFF1200010E0001836F000E826F8288D1
:10241000000E966F010E956F98EC03F0030E00010D
:102420009E6FE80E9D6F9D07D8A09E079D2906E12F
:102430009E29D8A41EEF12F020EF12F013EF12F035
:10244000000E966F000E956F98EC03F01200295065
:10245000D8A42DEF12F02FEF12F04AEF12F0000E79
:10246000646E000E606E160E616E9F0E0F015B6F44
:102470007B0E606ED08EA284A084F28E41EF12F0AB
:10248000648664A646EF12F048EF12F040EF12F0B7
:10249000010E296E1200000E256E000E3B6E740EAA
:1024A0003A6E000E3C6E000E3D6E000E3F6E000E4A
:1024B0003E6EF4EC0EF06492609460EF12F0629461
:1024C00062B465EF12F067EF12F05FEF12F0000EEA
:1024D00000017C6F12008AC090F08BC091F079EF00
:1024E00012F090C0D9FF91C0DAFF8CC0DFFF904B93
:1024F000912B00018E07D8A08F078E2906E18F2926
:10250000D8A485EF12F087EF12F071EF12F01200ED
:102510002EC034F02FC035F096EF12F034C0D9FF42
:1025200035C0DAFF30C0DFFF344A352A3206D8A082
:102530003306322806E13328D8A4A1EF12F0A3EF26
:1025400012F08EEF12F01200010E00016E27000E45
:102550006F23702371232550D8A4B1EF12F0B3EF8D
:1025600012F0BDEF12F07C2B7C51D8A4BAEF12F020
:10257000BCEF12F0BDEF12F07C691200608462982B
:102580006482010E256E000E00017C6F000E3B6E12
:10259000750E3A6E000E3C6E000E3D6E000E3F6EE4
:1025A000000E3E6EF4EC0EF0120000EE60F0260E0F
:1025B000EE6AE806FDE100EE01F02D0EEE6AE80697
:1025C000FDE157905792000EF86E000187EF11F071
:1025D000D58ED59CD59AD598D596070ED512480E8E
:1025E000D76EE50ED66ED08EF28CF194F28AF2940C
:1025F0001200280E016E020E026E000E066E080E0C
:10260000056E6C0E076E260E086E048E12002F6E7D
:102610002F50D8A40EEF13F010EF13F014EF13F0B7
:102620002EC076F00001776B12009498949A9480F3
:10263000000E7E6E000E7F6EF18CF298F292120008
:10264000000E00017B6F000E7A6F2FEC13F012006A
:10265000D59E480ED76EE50ED66ED58E1200D59E4D
:10266000480ED76EE50ED66ED58E120028C248F2FF
:02267000120056
:020000040020DA
:08000000FFFFFFFFFFFFFFFF00
:020000040030CA
:0E0000000032011EFF0081FF03C003E0034039
:00000001FF
